:020000040800F2
:1000000068930020450100088D1300085D0F00086B
:10001000891300083D0A0008091C000800000000C0
:10002000000000000000000000000000CB150008E8
:10003000F50B0008000000005B0100085D010008EE
:100040000D1C000801140008091700086D150008B0
:10005000050C000869150008F70B0008FB0B0008E9
:10006000FD0B0008FF0B0008010C0008410A000806
:10007000430A0008450A0008470A0008490A000820
:100080004B0A00084D0A00082D0700085F01000810
:100090005F0100085F0100085F010008030C000811
:1000A0000B170008111700080F1700080D1700089C
:1000B000131700081517000817170008630F00082A
:1000C000610F0008670F0008650F00087115000830
:1000D0007315000899180008691A00086B1A0008BF
:1000E000F90B00086B150008071C00081F17000813
:1000F0002517000823170008211700082F070008FC
:10010000070C00086F15000819170008751500087E
:1001100093180008951800081B1700081D17000801
:100120004F0A0008510A0008530A0008550A00083F
:10013000DFF80CD000F09CFA004800479525000835
:10014000689300200648804706480047FEE7FEE720
:10015000FEE7FEE7FEE7FEE7FEE7FEE7FEE7FEE777
:10016000B51600083101000810B5002200E0521C4D
:10017000835C8C5CA34201D1002BF8D1D8B2E1B2F0
:10018000401A10BD034611F8012B00F8012B002A7C
:10019000F9D1184670472DE9FE4F81EA030404F0B7
:1001A000004421F0004100944FF0000B23F0004385
:1001B00050EA01045ED052EA03045BD0C3F30A5450
:1001C000C1F30A552C44A4F2F3340194A0FB025469
:1001D000C1F3130141F48011C3F3130343F48013FB
:1001E00001FB024400FB034E840A970A44EA81544F
:1001F00047EA8357A4FB076802958D0A05FB07852C
:100200004FEA932C04FB0C542705029D4FEA065835
:1002100047EA1637B5EB08056EEB070C870E920E12
:1002200047EA811742EA8312A7FB0201B6EB0B01F2
:1002300064EB00042B0D43EA0C335E1844EB1C50B6
:10024000DA465146E7FB0201C5F313044FEA0B33CC
:1002500043EA14534FEA0432019C43EA0603A4F133
:100260000C040294009CCDE900B400F06CF803B0DB
:10027000BDE8F08F00200146F9E730B50B46014696
:1002800000202022012409E021FA02F59D4205D335
:1002900003FA02F5491B04FA02F52844151EA2F1DF
:1002A0000102F1DC30BD2DE9F05F054600209246E9
:1002B0009B4688460646814640241BE02846414628
:1002C0004746224600F020F853465A46C01A91414C
:1002D00010D311461846224600F0DCF92D1A67EBC0
:1002E00001084F4622460120002100F0D3F917EB08
:1002F00000094E41201EA4F10104DFDC48463146CE
:100300002A464346BDE8F09F202A04DB203A21FA22
:1003100002F00021704721FA02F3D040C2F120021E
:10032000914008431946704710B5141E73F100043C
:1003300008DA401C41F1000192185B411A4301D1D7
:1003400020F0010010BD2DE9F04D92469B4611B101
:10035000B1FA81F202E0B0FA80F22032904600F069
:1003600099F904460F4640EA0A0041EA0B01534658
:100370005A46084313D0114653EA010019D0C8F178
:1003800040025046FFF7C0FF05460E46504659460C
:10039000424600F07FF9084305D0012004E02046E2
:1003A0003946BDE8F08D0020054346EAE0762C434F
:1003B00037430A986305E40AA0EB08000022FD0A0F
:1003C00044EA47540A3002D500200146E9E7010516
:1003D00010196941DDE9084500196941BDE8F04D92
:1003E000A2E72DE9FE4F804681EA0300C00F0C46CC
:1003F000009021F0004123F00045B8EB0200A94134
:1004000005D24046214690461C460B46024623F044
:100410000040104347D0270DC7F30A00C3F30A5129
:100420000290401A019040286BDAC3F3130040F4A5
:10043000801B0098924620B10023D2EB030A63EBA5
:100440000B0B01985946C0F14002504600F022F9CA
:1004500006460D4650465946019A00F02AF910EB1F
:1004600008006141002487EA115284EAE7731A43C5
:1004700040D0009A62B3019A012A4FEA075215DC74
:10048000001B61EB02014FF0004202EA0752CDE986
:100490000042001C41F5801132462B46FFF753FF06
:1004A00003B0BDE8F08F40462146F9E7001B61EB41
:1004B0000201001C41F5801300185B412018A2F5D1
:1004C000001747EB030140EAD570B6196D4111E002
:1004D0006D084FEA360645EAC0754FEA0752001B21
:1004E00061EB0201001C41F5801149084FEA300020
:1004F0000019514132462B4603B0BDE8F04FFFF7DB
:1005000013BF0098012240000023D0EB020263EBEE
:10051000E073009821464FEAE074B8EB000061EB0D
:100520000401E9E783F000435BE781F0004158E70D
:100530002DE9F04D81EA030404F0004B21F0004561
:1005400014464FF0000A23F0004150EA050220D083
:1005500054EA01021DD0C5F30A570246C5F313033E
:10056000C1F31300C1F30A5640F4801543F480131D
:10057000A7EB0608101BD64608F2FD3873EB050002
:1005800002D308F1010801E092185B41B8F1000FB5
:1005900003DA00200146BDE8F08D00204FF4801101
:1005A000064684460EE0171B73EB050705D3121BA6
:1005B00063EB050306434CEA010C49084FEA30009F
:1005C00092185B4150EA0107EDD152EA030012D0C4
:1005D00082EA040083EA0501084305D0101BAB4101
:1005E00006D20122002306E000224FF0004302E081
:1005F0006FF0010253101AEB06004CEB085110EBA0
:100600000A0041EB0B01BDE8F04DFFF78DBEC1F3D1
:100610000A52C1F3130140F2FF3341F480119A42B0
:1006200002DA00200146704740F233439A42A2F2B8
:10063000334202DC5242FFF767BE00F02BB80000E5
:1006400030B5041E71F1000404DB4FF00044404259
:1006500064EB0101141E73F1000405DB1C464FF02E
:100660000043524263EB0403994208BF904230BDFD
:10067000064C074D06E0E06840F0010394E80700EF
:1006800098471034AC42F6D3FFF756FDD427000844
:10069000F4270008202A04DB203A00FA02F10020A7
:1006A00070479140C2F1200320FA03F319439040B0
:1006B0007047202A06DBCB17203A41FA02F043EAC2
:1006C000E07306E041FA02F3D040C2F1200291400B
:1006D00008431946704770B58C1810F8015B15F087
:1006E000070301D110F8013B2A1106D110F8012BA4
:1006F00003E010F8016B01F8016B5B1EF9D12B07C9
:1007000005D40023521E0DD401F8013BFAE710F87E
:10071000013BCB1A921C03E013F8015B01F8015B6B
:10072000521EF9D5A142D8D3002070BD7047704742
:1007300021B1826842F00102826003E0826822F007
:1007400001028260704721B1826842F48072826047
:1007500003E0826822F480728260704700B599B02D
:100760004FF4404000F04EFE0121084600F056FED6
:10077000012140F6042000F071FE0220ADF8600077
:1007800000208DF8630018A9444800F055FB05A827
:1007900001F076F85A20ADF818006420ADF8140086
:1007A0000020ADF81A00ADF8160005A93C4801F08C
:1007B00015F86020ADF804000120ADF80600102007
:1007C000ADF80A000220ADF80C0001A9344800F091
:1007D000B9FF0121324800F0A6FF324800F046F987
:1007E000314808903148099000200A904FF47A501F
:1007F0000B9000200C9080200D9040000E90800007
:100800000F9020201090000211900020129008A953
:10081000244800F0D1F90121224800F01CF9002001
:1008200013908DF850008DF851001590169001200E
:100830008DF85C0013A91C484C3800F04DF80523D6
:100840000122114618484C3800F06EF80121164874
:100850004C38FFF778FF012113484C38FFF768FF49
:1008600011484C3800F0BCF800BF0F484C3800F07D
:1008700029F80028F9D10C484C3800F0C1F800BF25
:1008800009484C3800F014F80028F9D10121064835
:100890004C3800F0AAF819B000BD00000008014073
:1008A000002C0140080002404C240140F8010020C7
:1008B000014600208A6802F004020AB1012000E02B
:1008C00000207047014600208A6802F008020AB141
:1008D000012000E00020704730B5024600200023D0
:1008E00050680F4C20400D790C6844EA05242043E1
:1008F000506090680B4C2040D1E902542C434D7954
:1009000044EA450420439060D06A20F470000C7CD7
:10091000641EE4B2234340EA0350D06230BD0000BD
:10092000FFFEF0FFFDF7F1FFF0B504460D46002095
:100930000021092D11DDE068A5F10A0606EB460746
:10094000072606FA07F18843A5F10A0606EB4606D4
:1009500003FA06F10843E0600CE0206905EB450767
:10096000072606FA07F1884305EB450603FA06F168
:1009700008432061072A0FDA606B561E06EB8607D4
:100980001F2606FA07F18843561E06EB860605FA6F
:1009900006F10843606322E00D2A0FDA206BD61FB0
:1009A00006EB86071F2606FA07F18843D61F06EBDB
:1009B000860605FA06F10843206310E0E06AA2F11A
:1009C0000D0606EB86071F2606FA07F18843A2F1FB
:1009D0000D0606EB860605FA06F10843E062F0BD57
:1009E000816841F008018160704721B1826842F45A
:1009F000A002826003E0826822F4A0028260704755
:100A0000816841F0040181607047000010B500F07A
:100A100035FD00F0E9F900F095FF06A001F006F8B9
:100A200001F018FE01F076FE00F0ECFAFFF796FEFA
:100A300010BD0000737461727400000000BFFEE717
:100A400070477047704770477047704770477047EE
:100A500070477047704721B1026842F0010202609E
:100A600003E0026822F0010202607047016821F091
:100A7000010101600021016041608160C1604C4959
:100A8000884208D14A490839496841F00F01484A6B
:100A9000083A51608AE046491431884208D14449F5
:100AA0000839496841F0F001414A083A51607DE057
:100AB0003F492831884208D13D490839496841F405
:100AC00070613B4A083A516070E039493C318842D4
:100AD00008D137490839496841F47041344A083A25
:100AE000516063E032495031884208D130490839B9
:100AF000496841F470212E4A083A516056E02C4969
:100B00006431884208D12A490839496841F47001A2
:100B1000274A083A516049E025497831884208D18E
:100B200023490839496841F07061214A083A516007
:100B30003CE02049884206D1011F096841F00F01BD
:100B4000021F116032E01B491431884208D1194953
:100B5000091F096841F0F001164A121F116025E0D3
:100B600014492831884208D11249091F096841F403
:100B70007061104A121F116018E00E493C31884222
:100B800008D10C49091F096841F47041094A121F34
:100B900011600BE007495031884207D10549091F10
:100BA000096841F47021034A121F11607047000068
:100BB000080002400804024010B50022026847F60F
:100BC000F0739A430C6A8B6823430C6923434C6986
:100BD00023438C692343CC6923434C6A23438C6AA7
:100BE00023431A430260CB6843600B6883604B6801
:100BF000C36010BD704770477047704770477047BB
:100C0000704770477047704700B597B00120ADF846
:100C1000580010208DF85B0003208DF85A0016A9AB
:100C2000274800F009F90121254800F090F94CF21D
:100C30003370ADF8580018208DF85B0016A92148D4
:100C400000F0FAF84FF68070ADF8580016A91E486B
:100C500000F0F2F841F20100ADF8580016A91B4867
:100C600000F0EAF80020019002900220039000209A
:100C700004900590069007900620089000200990A7
:100C80000A9010200B9000200C900D900E900F9069
:100C90004FF480501090002011901290139001A8F2
:100CA000149015900121080200F0B8FB08A800F08C
:100CB00029F80121062000F00BF817B000BD000054
:100CC000000C0140001401400018014000200140C8
:100CD00051B18200A2F1C042126842F001038200C9
:100CE000A2F1C042136009E08200A2F1C042126882
:100CF000034B1A408300A3F1C0431A607047000001
:100D0000FEFF0F00D0E901121143C26811430269CE
:100D100011434269114382691143C2691143026A56
:100D20001143426A1143826A1143C26A1143026845
:100D30009200A2F1C0421160816808290BD10168BC
:100D40008900A1F1C041096841F0400201688900B1
:100D5000A1F1C0410A60016B0968026B526841EA67
:100D60000211026B926841EA0221026B928941EA08
:100D70000241026B128A41EA0251026B127D41EA82
:100D80000261026B926911430268521C9200A2F147
:100D9000C0421160816AB1F5804F1BD1416B096877
:100DA000426B526841EA0211426B926841EA0221A9
:100DB000426B128A41EA0251426B127D41EA0261A2
:100DC000426B9269114302689200A2F1C042C2F8DC
:100DD000041107E06FF0704201688900A1F1C04181
:100DE000C1F804217047000008B5C020ADF800002C
:100DF00010208DF8030003208DF8020069460B488F
:100E000000F01AF84FF40150ADF8000069460848A8
:100E100000F012F83C20ADF8000048208DF80300E7
:100E20006946044800F008F808BD000000100140C1
:100E300000140140001801402DE9F0410246002550
:100E40000026002000230024002791F803C00CF0A6
:100E50000F0591F803C00CF0100CBCF1000F03D08B
:100E600091F802C04CEA050591F800C0BCF1000FF2
:100E700031D0146800202BE04FF0010C0CFA00F385
:100E8000B1F800C00CEA03069E4220D183004FF067
:100E90000F0C0CFA03F7BC4305FA03FC4CEA0404FC
:100EA00091F803C0BCF1280F06D14FF0010C0CFAE9
:100EB00000FCC2F814C00AE091F803C0BCF1480F6E
:100EC00005D14FF0010C0CFA00FCC2F810C0401C18
:100ED0000828D1D31460B1F800C0BCF1FF0F34DD95
:100EE000546800202EE000F1080C4FF0010808FAC9
:100EF0000CF3B1F800C00CEA03069E4221D1830036
:100F00004FF00F0C0CFA03F7BC4305FA03FC4CEA54
:100F1000040491F803C0BCF1280F05D100F1080CBE
:100F200008FA0CF8C2F8148091F803C0BCF1480F1D
:100F300007D100F1080C4FF0010808FA0CF8C2F8CC
:100F40001080401C0828CED35460BDE8F081416178
:100F500070470AB1016100E04161704700BFFEE7E0
:100F600070477047704770472DE9F04705460E46B9
:100F700014461F46DDF820A028191F498988884299
:100F800003DD1D488088401B84B2F0191A49C988C6
:100F9000884203DD1848C088801B87B21748007854
:100FA000012809D1A0463C461FFA88F7B0462E46D4
:100FB000C8F1F000001B85B23B4622463146284668
:100FC00000F0C8F93146284600F09EF904FB07F806
:100FD0004FF0000904E00A48A0F800A009F1010957
:100FE000C145F8D34FF4A073F0220021084600F069
:100FF000B1F9BDE8F08700005E000020E2010020AA
:101000000008006C08B5FFF7FFFDE320BD4908802C
:1010100043F20800891C0880E720891E08801220FE
:10102000891C0880EF20891E088041F23120891C2C
:1010300008800020891E08800120891C0880891EE4
:1010400008800002891C08800220891E08804FF455
:10105000E060891C08800320891E088041F230006E
:10106000891C08800420891E08800020891C0880B3
:101070000820891E088040F20220891C088009206F
:10108000891E08800020891C08800A20891E08808B
:101090000020891C08800C20891E08800020891CE3
:1010A00008800D20891E08800020891C08800F20E0
:1010B000891E08800020891C08801020891E088055
:1010C0000020891C08801120891E08800720891CA7
:1010D00008801220891E08800020891C08801320A7
:1010E000891E08800020891C0880142001F01AFA4B
:1010F00010208449088041F29060891C08801120EA
:10110000891E088040F22720891C0880322001F0C7
:1011100025FA12207B4908801C20891C0880322077
:1011200001F01CFA1320774908804FF4C050891C45
:1011300008802920891E08801420891C08802B2003
:10114000891E08800D20891C0880322001F006FAD3
:1011500020206C4908800020891C08802120891EDD
:1011600008800020891C08803020891E0880072004
:10117000891C08803120891E088040F20230891CB9
:1011800008803220891E088040F20510891C0880E2
:101190003520891E088040F20620891C08803620F0
:1011A000891E088040F60800891C08803720891EA7
:1011B000088040F20620891C08803820891E08809B
:1011C00040F20450891C08803920891E08800720BD
:1011D000891C08803C20891E088040F20510891C6B
:1011E00008803D20891E088040F60800891C088080
:1011F0005020891E08800020891C08805120891EEB
:101200000880EF20891C08805220891E0880002059
:10121000891C08805320891E088040F23F10891CD9
:1012200008806020891E08804FF42740891C0880B0
:101230006120891E08800120891C08806A20891E7F
:1012400008800020891C08808020891E08800020DA
:10125000891C08808120891E08800020891C088044
:101260008220891E08800020891C08808320891E16
:1012700008800020891C08808420891E08800020A6
:10128000891C08808520891E08800020891C088010
:101290009020891E08801020891C08809220891EB9
:1012A00008800020891C08809320891E0880032064
:1012B000891C08809520891E08804FF48870891C3D
:1012C00008809720891E08800020891C08809820AB
:1012D000891E08800020891C08800720891E08803C
:1012E00040F23310891C0880012000F01BF84FF4F5
:1012F000FC60F0234FF4A072002100900846FFF735
:1013000033FE08BDFE07006C2022054B1A809A1C94
:10131000108021221A809A1C118022221A80704784
:10132000FE07006C094908700978012906D14FF4BD
:10133000A071074A9180F021D18005E0F021044A94
:1013400091804FF4A071D18070470000E20100202D
:101350005E00002030B550240A4D2C80AC1C20804B
:1013600051242C808418641EAD1C2C805224AD1E88
:101370002C80AC1C218053242C80CC18641EAD1C06
:101380002C8030BDFE07006C00BFFEE770470000F8
:1013900070B5002100230F22C47804B3154C2468D3
:1013A00004F4E064C4F5E064210AC1F10403CA4016
:1013B000447804FA03F184781440214309010E4C67
:1013C0000678A155047804F01F050124AC40057887
:1013D0006D11AD0005F1E025C5F8004109E0047884
:1013E00004F01F050124AC40044D0678761145F841
:1013F000264070BD0CED00E000E400E080E100E07C
:101400007047000001460020034A506820F4404025
:1014100008435060704700000010024029B1064A9E
:1014200052690243044B5A6104E0034A5269824301
:10143000014B5A61704700000010024029B1064A72
:10144000D2690243044BDA6104E0034AD269824361
:10145000014BDA61704700000010024029B1064AD2
:1014600092690243044B9A6104E0034A9269824301
:10147000014B9A61704700000010024010B5012135
:1014800045F27D30FFF7EAFF01210846FFF7C6FF6E
:1014900010BD000030B500210022002400232D4D96
:1014A0006D6805F00C0121B1042905D0082923D16C
:1014B00005E0294D056022E0274D05601FE0254D20
:1014C0006D6805F47012234D6D6805F480340225B3
:1014D00005EB92421CB9214D554305600BE01D4DB3
:1014E0006D6805F400351DB11C4D5543056002E0E3
:1014F000194D5543056002E0174D056000BF00BF60
:10150000144D6D6805F0F0010909154D6B5C056817
:10151000DD4045600F4D6D6805F4E061090A104D2E
:101520006B5C4568DD4085600A4D6D6805F460516F
:10153000C90A0B4D6B5C4568DD40C560054D6D68A3
:1015400005F44041890B074D6B5CC568B5FBF3F5AD
:10155000056130BD0010024000127A0000093D0014
:10156000E3010020F3010020704770477047704787
:1015700070477047704721B1028842F040020280F4
:1015800004E002884FF6BF731A400280704710B51E
:101590000022028802F441520B884C8823438C8835
:1015A0002343CC8823430C8923434C8923438C89D0
:1015B0002343CC8923431A430280838B4FF2FF7469
:1015C000234083830B8A038210BD704710B500F05F
:1015D00001F810BD0CB50020019000903348006860
:1015E00040F480303149086000BF3048006800F4A2
:1015F000003000900198401C0190009818B90198A3
:10160000B0F5A06FF1D12948006800F4003010B1A6
:101610000120009001E0002000900098012843D1B3
:101620002348006840F0100021490860084600681F
:1016300020F0030008600846006840F002000860DF
:101640001A4840681949486008464068486008469A
:10165000406840F4806048600846406820F47C1090
:1016600048600846406840F4E81048600846006852
:1016700040F08070086000BF0C48006800F0007007
:101680000028F9D00948406820F003000749486065
:101690000846406840F00200486000BF03484068C8
:1016A00000F00C000828F9D10CBD00000010024029
:1016B0000020024010B51148006840F001000F49B9
:1016C0000860084640680E4908400C4948600846D2
:1016D00000680C490840094908600846006820F481
:1016E000802008600846406820F4FE0048604FF4FF
:1016F0001F008860FFF76AFF10BD00000010024065
:101700000000FFF8FFFFF6FE704770477047704714
:101710007047704770477047704770477047704711
:1017200070477047704731B1B0F8442042F400422E
:10173000A0F8442005E0B0F84420C2F30E02A0F85F
:101740004420704770B5002400220023058C4FF61A
:10175000FE7635400584028C8388048B4FF68F75A6
:101760002C40B51E2C400D882C43751E2A400D8937
:101770002A434D882A43144DA8420BD0134DA8424A
:1017800008D0134DA84205D0124DA84202D0124DE8
:10179000A84213D14FF6F7752A404D892A434FF6D8
:1017A000FB752A408D882A434FF6FF652B404FF684
:1017B000FF552B408D892B43CD892B438380048398
:1017C000CD888586028470BD002C01400034014024
:1017D00000400140004401400048014000220288CE
:1017E0001D4B98420ED01D4B98420BD0B0F1804F4C
:1017F00008D01B4B984205D01A4B984202D01A4B86
:10180000984204D14FF68F731A404B881A43174BF6
:10181000984207D0164B984204D04FF6FF431A4027
:10182000CB881A4302808B8883850B8803850A4BFB
:1018300098420BD0094B984208D00E4B984205D0E5
:101840000D4B984202D00D4B984201D10B7A038682
:101850000123838270470000002C014000340140C6
:101860000004004000080040000C00400010004050
:101870000014004000400140004401400048014085
:101880004FF6FF71818000210180C180418001728B
:10189000704770477047000010B500242021194898
:1018A00000F0F0F801282BD1164800F089F916490C
:1018B000164A12888854084614490988405C0A2848
:1018C00013D100201049114A128888540120104970
:1018D000088000200D4908800EA10B48FEF744FC4B
:1018E00070B90EA000F08AFE0AE008480088401C8B
:1018F00006490880084600881F2801D1002008807A
:1019000010BD0000003801403600002056000020C5
:101910005800002068656C70000000000A68656C63
:101920007020746573742061646331202061646386
:1019300031633130302061646331633130303030B5
:101940000A00000000B587B001210520FFF786FDE1
:1019500001218803FFF782FD4FF48060ADF8080095
:1019600004208DF80B0002A92248FFF765FA4FF416
:101970000070ADF8080003208DF80A0018208DF8DB
:101980000B0002A91B48FFF757FA4FF416500390BB
:101990000020ADF81000ADF81200ADF81400ADF85D
:1019A00018000C20ADF8160003A9134800F09CF8AD
:1019B0000121114800F05AF8002240F227710E4828
:1019C00000F06DF8012240F225510B4800F067F855
:1019D00025208DF8040000208DF8060001208DF8E8
:1019E000070001A8FFF7D4FC0121034800F03EF8EE
:1019F00007B000BD00080140003801400FB408B531
:101A000003A800904FF480710648009B029A00F0F2
:101A1000FFF80449044800F0E7F80020009001B006
:101A20005DF814FB688A0020003801400FB408B547
:101A300003A800904FF480710848009B029A00F0C0
:101A4000E7F8002000900549054800F0CDF805A111
:101A5000034800F0C9F801B05DF814FB688A002063
:101A6000003801400D0A00007047704721B182899B
:101A700042F40052828104E082894DF6FF731A40DD
:101A80008281704702460020B1F5007F00D100BF7F
:101A900013880B400BB1012000E000207047F0B527
:101AA0000346002400260025002040F66A17B942AC
:101AB00000D100BF1846C1F3421401F01F060127F0
:101AC00007FA06F5012C01D10C3004E0022C01D1FB
:101AD000103000E014301AB107682F43076002E0AD
:101AE0000768AF430760F0BD2DE9F04786B00546B3
:101AF0000E460024A24600BFA1460027B08900B1CF
:101B000000BF2F462C8A4CF6FF700440F088044337
:101B10002C82AC894EF6F3100440B088318908431A
:101B2000718908430443AC81AC8A4FF6FF400440FE
:101B3000B0890443AC8201A8FFF7ACFC1F48874280
:101B400002D1DDF810A001E0DDF80CA0A88900F4B6
:101B5000004040B10AEBCA0000EB0A1031684900AE
:101B6000B0FBF1F807E00AEBCA0000EB0A1031689D
:101B70008900B0FBF1F86420B8FBF0F00401200903
:101B8000642101FB1089A88900F4004040B1322093
:101B900000EBC900B0FBF1F000F00700044308E0DF
:101BA000322000EB09106421B0FBF1F000F00F00CF
:101BB00004432C8106B0BDE8F087000000380140E6
:101BC00001468888C0F308007047000000BF054A3E
:101BD000128802F08002002AF9D0C1F30802828044
:101BE000704700000038014070B506460C460025DD
:101BF00005E0615D3046FFF7E9FF681C85B2605D76
:101C00000028F6D170BD704700BFFEE770470000A6
:101C10007CB5044600201D46164600290BD0491EFF
:101C2000CDE90041044B6A462946304600F0D8F819
:101C3000009A002111707CBD0F25000802E008C841
:101C4000121F08C1002AFAD170477047002001E036
:101C500001C1121F002AFBD1704700002DE9FF5F70
:101C600082B00021DDE90430020DDDF840B003430D
:101C700018D044F61050A2F2FF32424315141198C6
:101C800001281FD0A5EB0B00401C5FEA000A4FF0B3
:101C900000064E4FDFF83891B046504615D5CAF1D0
:101CA000000413E0119801244AA3012801D16FEA2E
:101CB0000B010298119AC0E90031C0E9024206B056
:101CC000BDE8F09FCBF10000DFE704460021404A69
:101CD000491842EB0450CDE9001012E0E00707D0AC
:101CE00032463B4640464946FEF755FA804689460D
:101CF00032463B4610461946FEF74DFA06460F4659
:101D00006410002CEAD1DDE90401DDE90023BAF119
:101D1000000F06DAFEF73FFA42464B46FEF73BFA63
:101D200005E0FEF705FC42464B46FEF701FC044683
:101D30000E460022284BFEF783FC03D84FF0FF30FD
:101D4000014607E00022254B20463146FEF749FBBD
:101D5000FEF75DFC102409E0002C0ADB0A220023B8
:101D6000FEF7A1FA039B30321A55641E50EA0102B5
:101D7000F2D1641C039AC4F111031444119A012A8C
:101D800003D0012208430DD10AE0084304D000200B
:101D90004FF0110B119072E7A3EB0B056D1E0DE0D8
:101DA0005B4504DD4FF0000205F1010504E003DAB4
:101DB0004FF00002A5F10105002AECD0029811991C
:101DC000C0E90231C0E9004579E700000000144095
:101DD0000000F03F300000000000F0430000E03F52
:101DE0002DE9FF4F95B09B468946064600250FE238
:101DF000252877D100242746F84A0121059400E0E0
:101E0000044316F8013F203B01FA03F01042F7D1DA
:101E100030782A2811D06FF02F033078A0F13002EB
:101E2000092A16D8059A44F0020402EB820203EB59
:101E300042021044761C0590EFE759F8042B0592F6
:101E4000002A03DA504244F40054059044F002049E
:101E5000761C30782E2816D116F8010F44F00404B1
:101E60002A280DD06FF02F023078A0F13003092B13
:101E700009D807EB870302EB4303C718761CF3E787
:101E800059F8047B761C30786C280FD006DC4C287F
:101E900017D068280DD06A2814D104E0742810D017
:101EA0007A280FD10DE044F400140AE044F48014C1
:101EB00001E044F440147278824202D104F58014A7
:101EC000761C761C307866280BD013DC582877D027
:101ED00009DC002875D04528F6D04628F4D04728DC
:101EE0001AD19DE118E0632835D0642879D065289F
:101EF00012D195E1702873D008DC6728F1D06928E9
:101F00006FD06E280DD06F2806D1B5E073282CD085
:101F1000752875D0782874D05A46179990476D1C4B
:101F200075E1C4F30250022809D003280DD0D9F876
:101F3000001004280DD00D6009F1040967E1D9F8FB
:101F40000010EA17C1E90052F6E7D9F800100D8039
:101F5000F2E70D70F0E719F8041B8DF8001000206F
:101F60008DF80100EA46012003E059F804AB4FF078
:101F7000FF3061074FF0000102D40DE008F10101CC
:101F80008846B9420FDA8045F8DB1AF808100029B4
:101F9000F4D108E008F1010188468142FADB1AF821
:101FA00008100029F6D105985B46A0EB08072146EA
:101FB0003846179A00F094FA284400EB080507E029
:101FC0004DE029E10DE01AF8010B5A4617999047A8
:101FD000B8F10108F7D25B4621463846179A13E15B
:101FE00042E00A220092C4F302524FF0000A022A91
:101FF00008D059F804CB032A4FEAEC710AD00DE05F
:1020000029E02AE009F1070121F00702F2E802C104
:10201000914609E00FFA8CFC4FEAEC71042A03D1D7
:102020004FFA8CFC4FEAEC71002907DA0A460021CE
:10203000DCF1000C61EB02012D2202E0220504D547
:102040002B228DF80420012203E0E20701D0202298
:10205000F7E7904659E00A2102E010220DE0102136
:102060004FF0000A00910BE010224FF0000A44F0FC
:1020700004040827009203E008224FF0000A0092AF
:10208000C4F30252022A05D059F804CB0021032AD6
:1020900008D009E009F1070121F00702F2E802C1C6
:1020A000914605E01FFA8CFC042A01D10CF0FF0CCC
:1020B0004FF00008220728D5702806D0009B83F037
:1020C000100353EA0A0305D00EE040228DF80420E5
:1020D000012208E05CEA010206D030228DF80420DB
:1020E0008DF8050002229046009B83F0080353EA16
:1020F0000A030AD15CEA010201D1620705D5302248
:102100008DF804204FF001087F1E582804D034A019
:1021100003900EA802900DE036A0F9E75346604602
:10212000009AFEF7C0F884460398825C0298401E2D
:10213000029002705CEA0100F0D1029806A9081A28
:1021400000F1200A600702D524F4803400E0012762
:10215000574502DDA7EB0A0000E0002000EB0A0172
:10216000009005984144401A0590E00306D45B4670
:102170002146179A059800F0B3F90544002706E0B8
:1021800001A85A46C05D179990476D1C7F1C4745B2
:10219000F6DBE0030CD55B462146179A059800F064
:1021A0009FF9054404E030205A46179990476D1C6A
:1021B0000099481E00900029F5DC08E00298029979
:1021C0005A460078491C0291179990476D1CBAF144
:1021D0000001AAF1010AF1DC65E100000928010013
:1021E000303132333435363738396162636465668D
:1021F000000000003031323334353637383941424F
:10220000434445460000000000F058F90544761CA0
:10221000307800287FF4ECAD19B02846BDE8F08F87
:10222000620700D4062709F1070222F0070CFCE838
:102230000223E14603F000485FEA080C02D00FF2E7
:10224000702C0DE05FEA045C02D50FF2682C07E009
:102250005FEAC47C02D00FF2602C01E0AFF2700C98
:102260004FF0FF3823F00043CDF850C065280CD064
:1022700006DC452809D046281DD047283DD13DE041
:10228000662818D067287ED138E00021112F01DBA5
:10229000112000E0781CCDE9000106A90EA8FFF787
:1022A000DDFCDDE90F010E9A03910021009207F198
:1022B000010A04914DE04FF000400097CDE9011074
:1022C00006A90EA8FFF7CAFCDDE90F0203920E9BD8
:1022D00011990022DDF80CA00093049211B9791C29
:1022E00000EB010AB7EB0A0004D4C0F1FF3007F19C
:1022F000010A0490AAEB0700019044E0012F00DAE4
:1023000001270021112F01DD112000E03846CDE921
:10231000000106A90EA8FFF7A1FCDDE90F010E9A46
:102320000391002104910092BA4621070CD403992D
:10233000514500DA8A46BAF1010F05DD009AAAF18B
:102340000101515C302908D0B84202DA10F1040FC3
:1023500006DA0121CDE9011015E0AAF10101E9E752
:10236000002805DC049901440491AAEB000102E075
:10237000411C514500DD8A460499401A401C0190D9
:102380004FF000400290200704D40198504501DB33
:10239000CDF8048000208DF84F0002980DF14F0712
:1023A000B0F1004F25D02B200E9002984FF002087C
:1023B00000280CDA404202902D200E9007E00A21FE
:1023C0000298FDF75AFF3031029007F8011DB8F16D
:1023D0000001A8F10108F2DC02980028EFD1791E73
:1023E0000E980870307800F0200040F0450007F8A3
:1023F000020D12A8C01B00F107081498007800B164
:10240000012000EB0A01019801EBE07105984144BD
:10241000401A401E0590E00306D45B462146179AF9
:10242000059800F05DF805441498007818B15A46F4
:10243000179990476D1CE00324D55B462146179AF7
:10244000059800F04DF805441CE00498002807DBCF
:10245000DDE90301884203DD0098405C179901E043
:10246000179930205A469047049805F10105401C01
:1024700004900198401E019004D12E205A461799CD
:1024800090476D1CBAF10001AAF1010ADDDC05E0FC
:1024900017F8010B5A46179990476D1CB8F10001C7
:1024A000A8F10108F4DC5B462146179A0598ABE6D3
:1024B0002D0000002B000000200000002DE9F0415D
:1024C000044600251E461746880404D405E0394614
:1024D0002020B0476D1C641EF9D52846BDE8F08168
:1024E0002DE9F041044600251E469046C80301D55B
:1024F000302700E02027880404D505E0414638460F
:10250000B0476D1C641EF9D52846BDE8F0814A68C5
:10251000002A06D00A68531C0B6010704868401EE1
:1025200048607047014642F228324A434FF0E023A8
:102530005A6100229A6101221A6100BF4FF0E02225
:10254000106900F001021AB100F48032002AF5D0BF
:1025500000224FF0E0231A619A617047014601EBB7
:10256000C1024FF0E0235A6100229A6101221A61F0
:1025700000BF4FF0E022106900F001021AB100F430
:102580008032002AF5D000224FF0E0231A619A61D0
:1025900070470000FEF73AFA0FA0FFF72FFA19E094
:1025A000114800F03BF84FF47A70FFF7BBFF0E487C
:1025B0000078772802D10DA000F020F809A000F0E3
:1025C0001DF8094800F01AF806A000F017F809A055
:1025D00000F014F8E4E7000073797320696E697401
:1025E000206F6B210A000000488A00200A74720ADA
:1025F000000000003131310A0000000070B50446CF
:10260000002505E0615D0448FFF7E0FA681C85B22B
:10261000605D0028F6D170BD0038014070B50546F8
:10262000002400E0641C202CFCDB782007490855BE
:1026300000200749088000BF054800880028FBD01B
:1026400002492846FDF79EFD70BD000036000020BF
:102650005800002000B587B001218803FEF7EEFE88
:102660004FF48050ADF8180010208DF81B000320A7
:102670008DF81A0006A91D48FEF7DEFB002000F0C9
:1026800039F84FF46040ADF8180018208DF81B00A1
:1026900003208DF81A0006A91448FEF7CDFB002090
:1026A000ADF804004FF48270ADF806000020ADF8DC
:1026B00008000220ADF80A000120ADF80C0040022D
:1026C000ADF80E000820ADF810000020ADF81200A3
:1026D0000720ADF8140001A90548FEF758FF0121B5
:1026E0000348FEF748FF07B000BD0000000C0140A2
:1026F0000038004010B504460CB9012000E000206D
:1027000002464FF480510248FEF723FC10BD000042
:10271000000C014000B587B0012141F28400FEF7B2
:102720009DFE4FF48060ADF8180048208DF81B0026
:1027300003208DF81A0006A92348FEF77DFB102020
:10274000ADF818008DF81B0003208DF81A0006A9BB
:102750001E48FEF771FB012210211C48FEF7F9FB11
:10276000E020ADF8180018208DF81B0003208DF82C
:102770001A0006A91548FEF75FFB0020ADF804001B
:102780004FF48270ADF806000020ADF8080002207A
:10279000ADF80A000120ADF80C004002ADF80E00C3
:1027A0001820ADF810000020ADF812000720ADF899
:1027B000140001A90648FEF7EAFE01210448FEF7CD
:1027C000DAFE07B000BD0000001C01400008014017
:1027D00000300140F427000800000020F80100004C
:1027E000D6060008E8280008F801002070910000D3
:1027F0004C1C0008133020133120133220133320D7
:1028000013342013352013362013372013382013A8
:10281000392013C9CF13CFC213C7B013BAF313D7DC
:10282000F313D3D213B4F313D0A1080B1331323303
:10283000343536373839300AD1144001F013E00707
:1028400013F86A121312631A1C0C121F1219123891
:102850004B13010C12283AA818141FF81F9AB30C36
:10286000126A7A123012101A5C0A190C2AFF0C7ABA
:10287000370C9A300C9A510C9A720C9A920C9AB3AB
:102880000C9AD40C9AF40CAB15016089789A510C0F
:102890009A720C9A920C9AB30C9AD40C9AF40C8BF0
:1028A00015010C121812945A4AF01A7A0C69181A67
:1028B000BF0C5A64FC121812C25A8C0C1AE80C5A3B
:1028C00034301A8C2269181A55C0390C193C12463A
:1028D000125F5AAA0C912D01020304041009060785
:0828E0000809020406080000CB
:0400000508000131BD
:00000001FF
